:100000000C945D000C9485000C9485000C94850084
:100010000C9485000C9485000C9485000C9485004C
:100020000C9485000C9485000C9485000C9485003C
:100030000C9485000C9485000C9485000C9485002C
:100040000C94A3020C9485000C9413030C94ED0201
:100050000C9485000C9485000C9485000C9485000C
:100060000C9485000C94850000000008000201003B
:100070000003040700000000000000000000000072
:10008000250028002B0000000000240027002A0083
:10009000040404040404040402020202020203032E
:1000A0000303030301020408102040800102040836
:1000B00010200102040810202F0511241FBECFEFCD
:1000C000D8E0DEBFCDBF11E0A0E0B1E0E0E8FBE0AA
:1000D00002C005900D92A631B107D9F721E0A6E143
:1000E000B1E001C01D92A83CB207E1F710E0CDE5F8
:1000F000D0E004C02197FE010E94B305CC35D107A2
:10010000C9F70E9445030C94BE050C94000090E0D2
:10011000FC01EC55FF4F2491FC01E057FF4F849107
:10012000882399F090E0880F991FFC01EA57FF4F50
:10013000A591B491FC01E458FF4F859194918FB73C
:10014000F894EC91E22BEC938FBF089590E0FC01C2
:10015000E859FF4F2491FC01EC55FF4F3491FC010D
:10016000E057FF4FE491EE2309F43CC0222339F11C
:10017000233091F038F42130A9F0223001F584B514
:100180008F7D12C0273091F02830A1F02430B9F4CF
:10019000809180008F7D03C0809180008F77809355
:1001A00080000DC084B58F7784BD09C08091B000F8
:1001B0008F7703C08091B0008F7D8093B000F0E016
:1001C000EE0FFF1FE458FF4FA591B4919FB7F8942D
:1001D000611104C08C913095382302C0EC913E2B04
:1001E0003C939FBF08953FB7F89480912701909169
:1001F0002801A0912901B0912A0126B5A89B05C02C
:100200002F3F19F00196A11DB11D3FBFBA2FA92F95
:10021000982F8827820F911DA11DB11DBC01CD0112
:1002200042E0660F771F881F991F4A95D1F70895FE
:10023000CF92DF92EF92FF920F931F93CF93DF93B2
:100240006C017A018B01C0E0D0E0CE15DF0581F0B2
:10025000D8016D918D01D601ED91FC910190F08155
:10026000E02DC6010995892B11F02196EECF7E0174
:10027000C701DF91CF911F910F91FF90EF90DF9019
:10028000CF900895089580E090E00895FC01538D8B
:10029000448D252F30E0842F90E0821B930B541760
:1002A00010F0CF96089501970895FC01918D828DED
:1002B000981761F0828DDF01A80FB11D5D968C91BA
:1002C000928D9F5F9F73928F90E008958FEF9FEFC5
:1002D0000895FC01918D828D981731F0828DE80F81
:1002E000F11D858D90E008958FEF9FEF0895FC013B
:1002F000918D228D892F90E0805C9F4F821B910908
:100300008F73992708958BE291E00E94770121E095
:10031000892B09F420E0822F0895FC01848DDF01F0
:10032000A80FB11DA35ABF4F2C91848D90E0019668
:100330008F739927848FA689B7892C93A089B18957
:100340008C91837080648C93938D848D981306C0F8
:100350000288F389E02D80818F7D80830895EF925C
:10036000FF920F931F93CF93DF93EC0181E0888F6F
:100370009B8D8C8D981305C0E889F989808185FD56
:1003800026C0F62E0B8D10E00F5F1F4F0F73112745
:10039000E02E8C8DE8120CC00FB607FCFACFE8896E
:1003A000F989808185FFF5CFCE010E948D01F1CFC3
:1003B0008B8DFE01E80FF11DE35AFF4FF0829FB7CE
:1003C000F8940B8FEA89FB89808180620AC09FB70D
:1003D000F894EE89FF896083E889F98980818370C8
:1003E000806480839FBF81E090E0DF91CF911F9177
:1003F0000F91FF90EF900895CF93DF93EC01888DDC
:100400008823C9F0EA89FB89808185FD05C0A88918
:10041000B9898C9186FD0FC00FB607FCF5CF80819E
:1004200085FFF2CFA889B9898C9185FFEDCFCE01E8
:100430000E948D01E7CFDF91CF91089580E090E099
:10044000892B29F00E94830181110C9400000895EA
:10045000EF92FF920F931F93CF93DF93E82EF62E28
:10046000C7E0D0E0042F10E0B8010C2E02C0759553
:1004700067950A94E2F761708E2D0E94A60061E0F4
:100480008F2D0E94A60060E08F2D0E94A60021976C
:1004900058F7DF91CF911F910F91FF90EF90089542
:1004A0008F929F92AF92BF920F931F93CF93DF9340
:1004B000CDB7DEB7A1970FB6F894DEBF0FBECDBFA4
:1004C00019A2423008F44AE08E010F5D1F4F842EBE
:1004D000912CA12CB12CA50194010E947B05E62F43
:1004E000B901CA0101501109EA3014F4E05D01C0FC
:1004F000E95CD801EC93232B242B252B61F7011504
:10050000110571F0F80101900020E9F73197AF0172
:10051000401B510BB8018BE291E00E94180102C010
:1005200080E090E0A1960FB6F894DEBF0FBECDBF7D
:10053000DF91CF911F910F91BF90AF909F908F90BF
:1005400008950E94B9051F920F920FB60F921124C1
:100550002F933F938F939F93AF93BF9380912301EA
:1005600090912401A0912501B091260130912201A2
:1005700023E0230F2D3720F40196A11DB11D05C0E6
:1005800026E8230F0296A11DB11D2093220180931E
:10059000230190932401A0932501B093260180911B
:1005A000270190912801A0912901B0912A0101967B
:1005B000A11DB11D8093270190932801A0932901CB
:1005C000B0932A01BF91AF919F918F913F912F914D
:1005D0000F900FBE0F901F9018951F920F920FB69D
:1005E0000F9211242F933F934F935F936F937F93B9
:1005F0008F939F93AF93BF93EF93FF938BE291E021
:100600000E948D01FF91EF91BF91AF919F918F91CA
:100610007F916F915F914F913F912F910F900FBEFE
:100620000F901F9018951F920F920FB60F921124E2
:100630002F938F939F93EF93FF93E0913B01F09162
:100640003C018081E0914101F091420182FD12C0A4
:100650009081809144018F5F8F73209145018217B3
:1006600051F0E0914401F0E0E55DFE4F958F8093FD
:10067000440101C08081FF91EF919F918F912F9153
:100680000F900FBE0F901F901895CF93DF9300D05F
:1006900000D0CDB7DEB7789484B5826084BD84B5D0
:1006A000816084BD85B5826085BD85B5816085BD6D
:1006B00080916E00816080936E0010928100809125
:1006C00081008260809381008091810081608093AD
:1006D0008100809180008160809380008091B100D2
:1006E00084608093B1008091B00081608093B000FD
:1006F00080917A00846080937A0080917A00826091
:1007000080937A0080917A00816080937A00809152
:100710007A00806880937A001092C100E0913B01DA
:10072000F0913C0182E08083E0913B01F0913C013B
:100730001082E0913701F09138011082E091390187
:10074000F0913A0180E1808310924301E0913F01F2
:10075000F091400186E08083E0913D01F0913E01FF
:10076000808180618083E0913D01F0913E01808134
:1007700088608083E0913D01F0913E018081806836
:100780008083E0913D01F0913E0180818F7D8083E7
:100790008AE00E9487008BE00E94870089E00E9427
:1007A000870086E00E94870000E4412C512C320132
:1007B000439440EF242E312C10EF2FB7F894809102
:1007C000230190912401A0912501B09126012FBF12
:1007D00040911E0150911F016091200170912101F3
:1007E000841B950BA60BB70B893C9105A105B105A0
:1007F00008F432C12FB7F89480912301909124011D
:10080000A0912501B09126012FBF80931E019093E6
:100810001F01A0932001B093210100937C008091DF
:100820007A00806480937A0080917A0086FDFCCF04
:10083000A091780080917900B0E0B82B20EF30E0F3
:100840000E94AC0520E034E040E050E00E945C05EE
:1008500030931D0120931C0160911C0170911D01BA
:10086000CB01770FAA0BBB0BBC01CD0123E0660FB8
:10087000771F881F991F2A95D1F720EF30E040E0BD
:1008800050E00E945C0530931B0120931A01809177
:100890001801909119018217930709F4DDC0C090E7
:1008A0001C01D0901D010D2C000CEE08FF08F7FE76
:1008B0000EC06DE28BE291E00E94AF0166277727C0
:1008C000CB016C197D098E099F094AE003C04AE0FB
:1008D000C701B6010E94500242E050E062E171E0BF
:1008E0008BE291E00E94180120911A0130911B01C6
:1008F0003A8329831C821B8289819A81EB81FC8146
:1009000060E08E179F070CF441C08AE00E94A600A9
:10091000B301A2010B8004C0440F551F661F771F4F
:100920000A94D2F76BE089E00E94280261E08AE035
:100930000E94A6000E94F3004B015C018AE5C82ECC
:10094000D12CE12CF12C0E94F300DC01CB018819A1
:100950009909AA09BB09883E9340A105B10598F3FE
:10096000F1E0CF1AD108E108F10828EE820E23E069
:10097000921EA11CB11CC114D104E104F10419F7A9
:100980008B819C8101969C838B83B6CF86E00E94ED
:10099000A60060E08AE00E94A600B301A2010980DF
:1009A00004C0440F551F661F771F0A94D2F76BE0EF
:1009B00089E00E94280261E08AE00E94A60086E0A9
:1009C0000E948700EEE6F0E084918330F9F048F46D
:1009D0008130B9F08230A1F584B5806284BD18BD44
:1009E00033C08730E9F0883019F1843049F58091BF
:1009F000800080628093800030928B0020928A0079
:100A000023C084B5806884BD17BD1EC0809180005E
:100A1000806880938000309289002092880014C002
:100A20008091B00080688093B0001093B3000CC038
:100A30008091B00080628093B0001093B40004C035
:100A400061E086E00E94A60080911A0190911B014E
:100A500090931901809318010E941E02AECEEBE222
:100A6000F1E01382128288EE93E0A0E0B0E084838C
:100A70009583A683B78384E091E09183808385EC9E
:100A800090E09587848784EC90E09787868780EC58
:100A900090E0918B808B81EC90E0938B828B82EC49
:100AA00090E0958B848B86EC90E0978B868B118EF3
:100AB000128E138E148E0895052E97FB1EF400944B
:100AC0000E94730557FD07D00E947B0507FC03D0E9
:100AD0004EF40C94730550954095309521953F4FF9
:100AE0004F4F5F4F089590958095709561957F4F1A
:100AF0008F4F9F4F0895A1E21A2EAA1BBB1BFD0129
:100B00000DC0AA1FBB1FEE1FFF1FA217B307E407EC
:100B1000F50720F0A21BB30BE40BF50B661F771F44
:100B2000881F991F1A9469F7609570958095909524
:100B30009B01AC01BD01CF010895A29FB001B39FFD
:100B4000C001A39F700D811D1124911DB29F700DD6
:100B5000811D1124911D08950E949D05B7FF0895E0
:100B6000821B930B0895EE0FFF1F0590F491E02D6B
:100B7000099481E090E0F8940C94BE05F894FFCFBE
:100B800000000000AF0118014601FC01770155018A
:060B900069010D0A0000DE
:00000001FF
